{
  "_format": "hh-sol-artifact-1",
  "contractName": "doogle",
  "sourceName": "contracts/doogle.sol",
  "abi": [
    {
      "inputs": [],
      "stateMutability": "nonpayable",
      "type": "constructor"
    },
    {
      "inputs": [
        {
          "internalType": "address",
          "name": "adrs",
          "type": "address"
        }
      ],
      "name": "getData",
      "outputs": [
        {
          "components": [
            {
              "internalType": "string",
              "name": "url",
              "type": "string"
            },
            {
              "internalType": "string",
              "name": "name",
              "type": "string"
            },
            {
              "internalType": "string",
              "name": "size",
              "type": "string"
            }
          ],
          "internalType": "struct doogle.File[]",
          "name": "",
          "type": "tuple[]"
        }
      ],
      "stateMutability": "view",
      "type": "function"
    },
    {
      "inputs": [
        {
          "internalType": "address",
          "name": "adrs",
          "type": "address"
        },
        {
          "internalType": "uint256",
          "name": "_index",
          "type": "uint256"
        }
      ],
      "name": "removeData",
      "outputs": [],
      "stateMutability": "nonpayable",
      "type": "function"
    },
    {
      "inputs": [
        {
          "internalType": "address",
          "name": "adrs",
          "type": "address"
        },
        {
          "internalType": "string",
          "name": "url",
          "type": "string"
        },
        {
          "internalType": "string",
          "name": "name",
          "type": "string"
        },
        {
          "internalType": "string",
          "name": "size",
          "type": "string"
        }
      ],
      "name": "setData",
      "outputs": [],
      "stateMutability": "nonpayable",
      "type": "function"
    }
  ],
  "bytecode": "0x608060405234801561001057600080fd5b50611064806100206000396000f3fe608060405234801561001057600080fd5b50600436106100415760003560e01c80632d2b24271461004657806338266b2214610062578063e248379714610092575b600080fd5b610060600480360381019061005b91906107f6565b6100ae565b005b61007c600480360381019061007791906108b1565b61017a565b6040516100899190610a7d565b60405180910390f35b6100ac60048036038101906100a79190610ad5565b6103cd565b005b6000808573ffffffffffffffffffffffffffffffffffffffff1673ffffffffffffffffffffffffffffffffffffffff168152602001908152602001600020604051806060016040528085815260200184815260200183815250908060018154018082558091505060019003906000526020600020906003020160009091909190915060008201518160000190816101459190610d21565b50602082015181600101908161015b9190610d21565b5060408201518160020190816101719190610d21565b50505050505050565b60606000808373ffffffffffffffffffffffffffffffffffffffff1673ffffffffffffffffffffffffffffffffffffffff168152602001908152602001600020805480602002602001604051908101604052809291908181526020016000905b828210156103c2578382906000526020600020906003020160405180606001604052908160008201805461020d90610b44565b80601f016020809104026020016040519081016040528092919081815260200182805461023990610b44565b80156102865780601f1061025b57610100808354040283529160200191610286565b820191906000526020600020905b81548152906001019060200180831161026957829003601f168201915b5050505050815260200160018201805461029f90610b44565b80601f01602080910402602001604051908101604052809291908181526020018280546102cb90610b44565b80156103185780601f106102ed57610100808354040283529160200191610318565b820191906000526020600020905b8154815290600101906020018083116102fb57829003601f168201915b5050505050815260200160028201805461033190610b44565b80601f016020809104026020016040519081016040528092919081815260200182805461035d90610b44565b80156103aa5780601f1061037f576101008083540402835291602001916103aa565b820191906000526020600020905b81548152906001019060200180831161038d57829003601f168201915b505050505081525050815260200190600101906101da565b505050509050919050565b60008190505b60016000808573ffffffffffffffffffffffffffffffffffffffff1673ffffffffffffffffffffffffffffffffffffffff168152602001908152602001600020805490506104219190610e22565b811015610545576000808473ffffffffffffffffffffffffffffffffffffffff1673ffffffffffffffffffffffffffffffffffffffff1681526020019081526020016000206001826104739190610e56565b8154811061048457610483610e8a565b5b90600052602060002090600302016000808573ffffffffffffffffffffffffffffffffffffffff1673ffffffffffffffffffffffffffffffffffffffff16815260200190815260200160002082815481106104e2576104e1610e8a565b5b9060005260206000209060030201600082018160000190816105049190610ecf565b50600182018160010190816105199190610ecf565b506002820181600201908161052e9190610ecf565b50905050808061053d90610fb7565b9150506103d3565b506000808373ffffffffffffffffffffffffffffffffffffffff1673ffffffffffffffffffffffffffffffffffffffff16815260200190815260200160002080548061059457610593610fff565b5b6001900381819060005260206000209060030201600080820160006105b991906105e1565b6001820160006105c991906105e1565b6002820160006105d991906105e1565b505090555050565b5080546105ed90610b44565b6000825580601f106105ff575061061e565b601f01602090049060005260206000209081019061061d9190610621565b5b50565b5b8082111561063a576000816000905550600101610622565b5090565b6000604051905090565b600080fd5b600080fd5b600073ffffffffffffffffffffffffffffffffffffffff82169050919050565b600061067d82610652565b9050919050565b61068d81610672565b811461069857600080fd5b50565b6000813590506106aa81610684565b92915050565b600080fd5b600080fd5b6000601f19601f8301169050919050565b7f4e487b7100000000000000000000000000000000000000000000000000000000600052604160045260246000fd5b610703826106ba565b810181811067ffffffffffffffff82111715610722576107216106cb565b5b80604052505050565b600061073561063e565b905061074182826106fa565b919050565b600067ffffffffffffffff821115610761576107606106cb565b5b61076a826106ba565b9050602081019050919050565b82818337600083830152505050565b600061079961079484610746565b61072b565b9050828152602081018484840111156107b5576107b46106b5565b5b6107c0848285610777565b509392505050565b600082601f8301126107dd576107dc6106b0565b5b81356107ed848260208601610786565b91505092915050565b600080600080608085870312156108105761080f610648565b5b600061081e8782880161069b565b945050602085013567ffffffffffffffff81111561083f5761083e61064d565b5b61084b878288016107c8565b935050604085013567ffffffffffffffff81111561086c5761086b61064d565b5b610878878288016107c8565b925050606085013567ffffffffffffffff8111156108995761089861064d565b5b6108a5878288016107c8565b91505092959194509250565b6000602082840312156108c7576108c6610648565b5b60006108d58482850161069b565b91505092915050565b600081519050919050565b600082825260208201905092915050565b6000819050602082019050919050565b600081519050919050565b600082825260208201905092915050565b60005b83811015610944578082015181840152602081019050610929565b60008484015250505050565b600061095b8261090a565b6109658185610915565b9350610975818560208601610926565b61097e816106ba565b840191505092915050565b600060608301600083015184820360008601526109a68282610950565b915050602083015184820360208601526109c08282610950565b915050604083015184820360408601526109da8282610950565b9150508091505092915050565b60006109f38383610989565b905092915050565b6000602082019050919050565b6000610a13826108de565b610a1d81856108e9565b935083602082028501610a2f856108fa565b8060005b85811015610a6b5784840389528151610a4c85826109e7565b9450610a57836109fb565b925060208a01995050600181019050610a33565b50829750879550505050505092915050565b60006020820190508181036000830152610a978184610a08565b905092915050565b6000819050919050565b610ab281610a9f565b8114610abd57600080fd5b50565b600081359050610acf81610aa9565b92915050565b60008060408385031215610aec57610aeb610648565b5b6000610afa8582860161069b565b9250506020610b0b85828601610ac0565b9150509250929050565b7f4e487b7100000000000000000000000000000000000000000000000000000000600052602260045260246000fd5b60006002820490506001821680610b5c57607f821691505b602082108103610b6f57610b6e610b15565b5b50919050565b60008190508160005260206000209050919050565b60006020601f8301049050919050565b600082821b905092915050565b600060088302610bd77fffffffffffffffffffffffffffffffffffffffffffffffffffffffffffffffff82610b9a565b610be18683610b9a565b95508019841693508086168417925050509392505050565b6000819050919050565b6000610c1e610c19610c1484610a9f565b610bf9565b610a9f565b9050919050565b6000819050919050565b610c3883610c03565b610c4c610c4482610c25565b848454610ba7565b825550505050565b600090565b610c61610c54565b610c6c818484610c2f565b505050565b5b81811015610c9057610c85600082610c59565b600181019050610c72565b5050565b601f821115610cd557610ca681610b75565b610caf84610b8a565b81016020851015610cbe578190505b610cd2610cca85610b8a565b830182610c71565b50505b505050565b600082821c905092915050565b6000610cf860001984600802610cda565b1980831691505092915050565b6000610d118383610ce7565b9150826002028217905092915050565b610d2a8261090a565b67ffffffffffffffff811115610d4357610d426106cb565b5b610d4d8254610b44565b610d58828285610c94565b600060209050601f831160018114610d8b5760008415610d79578287015190505b610d838582610d05565b865550610deb565b601f198416610d9986610b75565b60005b82811015610dc157848901518255600182019150602085019450602081019050610d9c565b86831015610dde5784890151610dda601f891682610ce7565b8355505b6001600288020188555050505b505050505050565b7f4e487b7100000000000000000000000000000000000000000000000000000000600052601160045260246000fd5b6000610e2d82610a9f565b9150610e3883610a9f565b9250828203905081811115610e5057610e4f610df3565b5b92915050565b6000610e6182610a9f565b9150610e6c83610a9f565b9250828201905080821115610e8457610e83610df3565b5b92915050565b7f4e487b7100000000000000000000000000000000000000000000000000000000600052603260045260246000fd5b600081549050610ec881610b44565b9050919050565b818103610edd575050610fb5565b610ee682610eb9565b67ffffffffffffffff811115610eff57610efe6106cb565b5b610f098254610b44565b610f14828285610c94565b6000601f831160018114610f435760008415610f31578287015490505b610f3b8582610d05565b865550610fae565b601f198416610f5187610b75565b9650610f5c86610b75565b60005b82811015610f8457848901548255600182019150600185019450602081019050610f5f565b86831015610fa15784890154610f9d601f891682610ce7565b8355505b6001600288020188555050505b5050505050505b565b6000610fc282610a9f565b91507fffffffffffffffffffffffffffffffffffffffffffffffffffffffffffffffff8203610ff457610ff3610df3565b5b600182019050919050565b7f4e487b7100000000000000000000000000000000000000000000000000000000600052603160045260246000fdfea2646970667358221220a8528dfef5b5db1e8235a895edae87772eb5d2cb4a7a58ff5163561a904088dc64736f6c63430008110033",
  "linkReferences": {},
  "deployedLinkReferences": {}
}